{
  "_format": "hh-sol-artifact-1",
  "contractName": "GovernmentLogin",
  "sourceName": "contracts/Revisit.sol",
  "abi": [
    {
      "inputs": [],
      "name": "details",
      "outputs": [
        {
          "internalType": "uint256",
          "name": "gdp",
          "type": "uint256"
        },
        {
          "internalType": "uint256",
          "name": "reserves",
          "type": "uint256"
        },
        {
          "internalType": "uint256",
          "name": "tax",
          "type": "uint256"
        },
        {
          "internalType": "uint256",
          "name": "expenditure",
          "type": "uint256"
        }
      ],
      "stateMutability": "view",
      "type": "function"
    },
    {
      "inputs": [
        {
          "internalType": "uint256",
          "name": "gdp",
          "type": "uint256"
        },
        {
          "internalType": "uint256",
          "name": "reserves",
          "type": "uint256"
        },
        {
          "internalType": "uint256",
          "name": "tax",
          "type": "uint256"
        },
        {
          "internalType": "uint256",
          "name": "expenditure",
          "type": "uint256"
        }
      ],
      "name": "enterDetails",
      "outputs": [],
      "stateMutability": "nonpayable",
      "type": "function"
    },
    {
      "inputs": [
        {
          "internalType": "string",
          "name": "security_code",
          "type": "string"
        }
      ],
      "name": "login",
      "outputs": [
        {
          "internalType": "bool",
          "name": "",
          "type": "bool"
        }
      ],
      "stateMutability": "view",
      "type": "function"
    },
    {
      "inputs": [
        {
          "internalType": "string",
          "name": "department_name",
          "type": "string"
        },
        {
          "internalType": "string",
          "name": "department_id",
          "type": "string"
        },
        {
          "internalType": "string",
          "name": "security_code",
          "type": "string"
        }
      ],
      "name": "register",
      "outputs": [],
      "stateMutability": "nonpayable",
      "type": "function"
    }
  ],
  "bytecode": "0x608060405234801561001057600080fd5b50610b32806100206000396000f3fe608060405234801561001057600080fd5b506004361061004c5760003560e01c80633a7d280c146100515780634cd08d0314610081578063565974d31461009d578063a98f668d146100be575b600080fd5b61006b6004803603810190610066919061057f565b6100da565b60405161007891906105e3565b60405180910390f35b61009b600480360381019061009691906105fe565b61032a565b005b6100a56103b3565b6040516100b594939291906106be565b60405180910390f35b6100d860048036038101906100d3919061072f565b6103d1565b005b6000806000836040516100ed9190610807565b90815260200160405180910390206040518060600160405290816000820180546101169061084d565b80601f01602080910402602001604051908101604052809291908181526020018280546101429061084d565b801561018f5780601f106101645761010080835404028352916020019161018f565b820191906000526020600020905b81548152906001019060200180831161017257829003601f168201915b505050505081526020016001820180546101a89061084d565b80601f01602080910402602001604051908101604052809291908181526020018280546101d49061084d565b80156102215780601f106101f657610100808354040283529160200191610221565b820191906000526020600020905b81548152906001019060200180831161020457829003601f168201915b5050505050815260200160028201805461023a9061084d565b80601f01602080910402602001604051908101604052809291908181526020018280546102669061084d565b80156102b35780601f10610288576101008083540402835291602001916102b3565b820191906000526020600020905b81548152906001019060200180831161029657829003601f168201915b5050505050815250509050826040516020016102cf9190610807565b6040516020818303038152906040528051906020012081604001516040516020016102fa9190610807565b604051602081830303815290604052805190602001200361031f576001915050610325565b60009150505b919050565b600060405180606001604052808581526020018481526020018381525090508060008360405161035a9190610807565b9081526020016040518091039020600082015181600001908161037d9190610a2a565b5060208201518160010190816103939190610a2a565b5060408201518160020190816103a99190610a2a565b5090505050505050565b60018060000154908060010154908060020154908060030154905084565b60405180608001604052808581526020018481526020018381526020018281525060016000820151816000015560208201518160010155604082015181600201556060820151816003015590505050505050565b6000604051905090565b600080fd5b600080fd5b600080fd5b600080fd5b6000601f19601f8301169050919050565b7f4e487b7100000000000000000000000000000000000000000000000000000000600052604160045260246000fd5b61048c82610443565b810181811067ffffffffffffffff821117156104ab576104aa610454565b5b80604052505050565b60006104be610425565b90506104ca8282610483565b919050565b600067ffffffffffffffff8211156104ea576104e9610454565b5b6104f382610443565b9050602081019050919050565b82818337600083830152505050565b600061052261051d846104cf565b6104b4565b90508281526020810184848401111561053e5761053d61043e565b5b610549848285610500565b509392505050565b600082601f83011261056657610565610439565b5b813561057684826020860161050f565b91505092915050565b6000602082840312156105955761059461042f565b5b600082013567ffffffffffffffff8111156105b3576105b2610434565b5b6105bf84828501610551565b91505092915050565b60008115159050919050565b6105dd816105c8565b82525050565b60006020820190506105f860008301846105d4565b92915050565b6000806000606084860312156106175761061661042f565b5b600084013567ffffffffffffffff81111561063557610634610434565b5b61064186828701610551565b935050602084013567ffffffffffffffff81111561066257610661610434565b5b61066e86828701610551565b925050604084013567ffffffffffffffff81111561068f5761068e610434565b5b61069b86828701610551565b9150509250925092565b6000819050919050565b6106b8816106a5565b82525050565b60006080820190506106d360008301876106af565b6106e060208301866106af565b6106ed60408301856106af565b6106fa60608301846106af565b95945050505050565b61070c816106a5565b811461071757600080fd5b50565b60008135905061072981610703565b92915050565b600080600080608085870312156107495761074861042f565b5b60006107578782880161071a565b94505060206107688782880161071a565b93505060406107798782880161071a565b925050606061078a8782880161071a565b91505092959194509250565b600081519050919050565b600081905092915050565b60005b838110156107ca5780820151818401526020810190506107af565b60008484015250505050565b60006107e182610796565b6107eb81856107a1565b93506107fb8185602086016107ac565b80840191505092915050565b600061081382846107d6565b915081905092915050565b7f4e487b7100000000000000000000000000000000000000000000000000000000600052602260045260246000fd5b6000600282049050600182168061086557607f821691505b6020821081036108785761087761081e565b5b50919050565b60008190508160005260206000209050919050565b60006020601f8301049050919050565b600082821b905092915050565b6000600883026108e07fffffffffffffffffffffffffffffffffffffffffffffffffffffffffffffffff826108a3565b6108ea86836108a3565b95508019841693508086168417925050509392505050565b6000819050919050565b600061092761092261091d846106a5565b610902565b6106a5565b9050919050565b6000819050919050565b6109418361090c565b61095561094d8261092e565b8484546108b0565b825550505050565b600090565b61096a61095d565b610975818484610938565b505050565b5b818110156109995761098e600082610962565b60018101905061097b565b5050565b601f8211156109de576109af8161087e565b6109b884610893565b810160208510156109c7578190505b6109db6109d385610893565b83018261097a565b50505b505050565b600082821c905092915050565b6000610a01600019846008026109e3565b1980831691505092915050565b6000610a1a83836109f0565b9150826002028217905092915050565b610a3382610796565b67ffffffffffffffff811115610a4c57610a4b610454565b5b610a56825461084d565b610a6182828561099d565b600060209050601f831160018114610a945760008415610a82578287015190505b610a8c8582610a0e565b865550610af4565b601f198416610aa28661087e565b60005b82811015610aca57848901518255600182019150602085019450602081019050610aa5565b86831015610ae75784890151610ae3601f8916826109f0565b8355505b6001600288020188555050505b50505050505056fea264697066735822122016df377a8bcf58067341d1dfc4798b13ce97772aca46f093d7e28eeb744676dd64736f6c63430008120033",
  "linkReferences": {},
  "deployedLinkReferences": {}
}